{
  "contractName": "Exchange",
  "abi": [
    {
      "inputs": [
        {
          "internalType": "address",
          "name": "_tokenAddress",
          "type": "address"
        }
      ],
      "stateMutability": "nonpayable",
      "type": "constructor"
    },
    {
      "inputs": [],
      "name": "getTotalSupplyOfToken",
      "outputs": [
        {
          "internalType": "uint256",
          "name": "",
          "type": "uint256"
        }
      ],
      "stateMutability": "view",
      "type": "function",
      "constant": true
    },
    {
      "inputs": [],
      "name": "getTokenAddress",
      "outputs": [
        {
          "internalType": "address",
          "name": "",
          "type": "address"
        }
      ],
      "stateMutability": "view",
      "type": "function",
      "constant": true
    },
    {
      "inputs": [
        {
          "internalType": "uint256",
          "name": "_tokenAmount",
          "type": "uint256"
        }
      ],
      "name": "addLiquidity",
      "outputs": [],
      "stateMutability": "payable",
      "type": "function",
      "payable": true
    },
    {
      "inputs": [],
      "name": "getTokenReserve",
      "outputs": [
        {
          "internalType": "uint256",
          "name": "",
          "type": "uint256"
        }
      ],
      "stateMutability": "view",
      "type": "function",
      "constant": true
    },
    {
      "inputs": [],
      "name": "getEtherReserve",
      "outputs": [
        {
          "internalType": "uint256",
          "name": "",
          "type": "uint256"
        }
      ],
      "stateMutability": "view",
      "type": "function",
      "constant": true
    },
    {
      "inputs": [
        {
          "internalType": "uint256",
          "name": "_inputEthAmount",
          "type": "uint256"
        },
        {
          "internalType": "uint256",
          "name": "EthReserve",
          "type": "uint256"
        },
        {
          "internalType": "uint256",
          "name": "tokenReserve",
          "type": "uint256"
        }
      ],
      "name": "getTokenAmount",
      "outputs": [
        {
          "internalType": "uint256",
          "name": "",
          "type": "uint256"
        }
      ],
      "stateMutability": "pure",
      "type": "function",
      "constant": true
    },
    {
      "inputs": [
        {
          "internalType": "uint256",
          "name": "_inputTokenAmount",
          "type": "uint256"
        },
        {
          "internalType": "uint256",
          "name": "tokenReserve",
          "type": "uint256"
        },
        {
          "internalType": "uint256",
          "name": "EthReserve",
          "type": "uint256"
        }
      ],
      "name": "getEtherAmount",
      "outputs": [
        {
          "internalType": "uint256",
          "name": "",
          "type": "uint256"
        }
      ],
      "stateMutability": "pure",
      "type": "function",
      "constant": true
    },
    {
      "inputs": [],
      "name": "changeEtherToToken",
      "outputs": [],
      "stateMutability": "payable",
      "type": "function",
      "payable": true
    },
    {
      "inputs": [
        {
          "internalType": "uint256",
          "name": "_inputTokenAmount",
          "type": "uint256"
        }
      ],
      "name": "changeTokenToEther",
      "outputs": [],
      "stateMutability": "nonpayable",
      "type": "function"
    }
  ],
  "bytecode": "0x60806040523480156200001157600080fd5b50604051620011fb380380620011fb83398181016040528101906200003791906200015b565b600073ffffffffffffffffffffffffffffffffffffffff168173ffffffffffffffffffffffffffffffffffffffff161415620000aa576040517f08c379a0000000000000000000000000000000000000000000000000000000008152600401620000a190620001ee565b60405180910390fd5b806000806101000a81548173ffffffffffffffffffffffffffffffffffffffff021916908373ffffffffffffffffffffffffffffffffffffffff1602179055505062000210565b600080fd5b600073ffffffffffffffffffffffffffffffffffffffff82169050919050565b60006200012382620000f6565b9050919050565b620001358162000116565b81146200014157600080fd5b50565b60008151905062000155816200012a565b92915050565b600060208284031215620001745762000173620000f1565b5b6000620001848482850162000144565b91505092915050565b600082825260208201905092915050565b7f616464726573732830292063616e6e6f74206265207573656400000000000000600082015250565b6000620001d66019836200018d565b9150620001e3826200019e565b602082019050919050565b600060208201905081810360008301526200020981620001c7565b9050919050565b610fdb80620002206000396000f3fe6080604052600436106100865760003560e01c8063ae0f591a11610059578063ae0f591a1461013a578063af35f67f14610163578063c4a862e4146101a0578063c5d53f00146101cb578063f1d9f88b146101d557610086565b806310fe9ae81461008b5780632be7d648146100b657806351c6590a146100f357806381b0b68a1461010f575b600080fd5b34801561009757600080fd5b506100a0610200565b6040516100ad91906109d8565b60405180910390f35b3480156100c257600080fd5b506100dd60048036038101906100d89190610a2e565b610229565b6040516100ea9190610a90565b60405180910390f35b61010d60048036038101906101089190610aab565b6102a4565b005b34801561011b57600080fd5b5061012461057e565b6040516101319190610a90565b60405180910390f35b34801561014657600080fd5b50610161600480360381019061015c9190610aab565b610586565b005b34801561016f57600080fd5b5061018a60048036038101906101859190610a2e565b61071a565b6040516101979190610a90565b60405180910390f35b3480156101ac57600080fd5b506101b5610795565b6040516101c29190610a90565b60405180910390f35b6101d361082c565b005b3480156101e157600080fd5b506101ea6108f5565b6040516101f79190610a90565b60405180910390f35b60008060009054906101000a900473ffffffffffffffffffffffffffffffffffffffff16905090565b60008082856102389190610b07565b9050600085856102489190610b61565b90506000811161028d576040517f08c379a000000000000000000000000000000000000000000000000000000000815260040161028490610c14565b60405180910390fd5b80826102999190610c63565b925050509392505050565b60008060009054906101000a900473ffffffffffffffffffffffffffffffffffffffff1673ffffffffffffffffffffffffffffffffffffffff166370a08231336040518263ffffffff1660e01b815260040161030091906109d8565b602060405180830381865afa15801561031d573d6000803e3d6000fd5b505050506040513d601f19601f820116820180604052508101906103419190610ca9565b11610381576040517f08c379a000000000000000000000000000000000000000000000000000000000815260040161037890610d48565b60405180910390fd5b600061038b6108f5565b141561044a5760008054906101000a900473ffffffffffffffffffffffffffffffffffffffff1673ffffffffffffffffffffffffffffffffffffffff166323b872dd3330670de0b6b3a7640000856103e39190610b07565b6040518463ffffffff1660e01b815260040161040193929190610d68565b6020604051808303816000875af1158015610420573d6000803e3d6000fd5b505050506040513d601f19601f820116820180604052508101906104449190610dd7565b5061057b565b600034476104589190610e04565b905060006104646108f5565b905060008282346104759190610b07565b61047f9190610c63565b9050670de0b6b3a7640000846104959190610b07565b81106104d6576040517f08c379a00000000000000000000000000000000000000000000000000000000081526004016104cd90610eaa565b60405180910390fd5b60008054906101000a900473ffffffffffffffffffffffffffffffffffffffff1673ffffffffffffffffffffffffffffffffffffffff166323b872dd3330846040518463ffffffff1660e01b815260040161053393929190610d68565b6020604051808303816000875af1158015610552573d6000803e3d6000fd5b505050506040513d601f19601f820116820180604052508101906105769190610dd7565b505050505b50565b600047905090565b60006105906108f5565b905060006105b2670de0b6b3a7640000846105ab9190610b07565b834761071a565b905060008054906101000a900473ffffffffffffffffffffffffffffffffffffffff1673ffffffffffffffffffffffffffffffffffffffff166323b872dd3330670de0b6b3a7640000876106069190610b07565b6040518463ffffffff1660e01b815260040161062493929190610d68565b6020604051808303816000875af1158015610643573d6000803e3d6000fd5b505050506040513d601f19601f820116820180604052508101906106679190610dd7565b5060003373ffffffffffffffffffffffffffffffffffffffff168260405161068e90610efb565b60006040518083038185875af1925050503d80600081146106cb576040519150601f19603f3d011682016040523d82523d6000602084013e6106d0565b606091505b5050905080610714576040517f08c379a000000000000000000000000000000000000000000000000000000000815260040161070b90610f5c565b60405180910390fd5b50505050565b60008082856107299190610b07565b9050600085856107399190610b61565b90506000811161077e576040517f08c379a000000000000000000000000000000000000000000000000000000000815260040161077590610c14565b60405180910390fd5b808261078a9190610c63565b925050509392505050565b60008060009054906101000a900473ffffffffffffffffffffffffffffffffffffffff1673ffffffffffffffffffffffffffffffffffffffff166318160ddd6040518163ffffffff1660e01b8152600401602060405180830381865afa158015610803573d6000803e3d6000fd5b505050506040513d601f19601f820116820180604052508101906108279190610ca9565b905090565b60006108366108f5565b9050600061085034344761084a9190610e04565b84610229565b905060008054906101000a900473ffffffffffffffffffffffffffffffffffffffff1673ffffffffffffffffffffffffffffffffffffffff1663a9059cbb33836040518363ffffffff1660e01b81526004016108ad929190610f7c565b6020604051808303816000875af11580156108cc573d6000803e3d6000fd5b505050506040513d601f19601f820116820180604052508101906108f09190610dd7565b505050565b60008060009054906101000a900473ffffffffffffffffffffffffffffffffffffffff1673ffffffffffffffffffffffffffffffffffffffff166370a08231306040518263ffffffff1660e01b815260040161095191906109d8565b602060405180830381865afa15801561096e573d6000803e3d6000fd5b505050506040513d601f19601f820116820180604052508101906109929190610ca9565b905090565b600073ffffffffffffffffffffffffffffffffffffffff82169050919050565b60006109c282610997565b9050919050565b6109d2816109b7565b82525050565b60006020820190506109ed60008301846109c9565b92915050565b600080fd5b6000819050919050565b610a0b816109f8565b8114610a1657600080fd5b50565b600081359050610a2881610a02565b92915050565b600080600060608486031215610a4757610a466109f3565b5b6000610a5586828701610a19565b9350506020610a6686828701610a19565b9250506040610a7786828701610a19565b9150509250925092565b610a8a816109f8565b82525050565b6000602082019050610aa56000830184610a81565b92915050565b600060208284031215610ac157610ac06109f3565b5b6000610acf84828501610a19565b91505092915050565b7f4e487b7100000000000000000000000000000000000000000000000000000000600052601160045260246000fd5b6000610b12826109f8565b9150610b1d836109f8565b9250817fffffffffffffffffffffffffffffffffffffffffffffffffffffffffffffffff0483118215151615610b5657610b55610ad8565b5b828202905092915050565b6000610b6c826109f8565b9150610b77836109f8565b9250827fffffffffffffffffffffffffffffffffffffffffffffffffffffffffffffffff03821115610bac57610bab610ad8565b5b828201905092915050565b600082825260208201905092915050565b7f6469766973696f6e206279207a65726f206973206e6f7420616c6c6f77656400600082015250565b6000610bfe601f83610bb7565b9150610c0982610bc8565b602082019050919050565b60006020820190508181036000830152610c2d81610bf1565b9050919050565b7f4e487b7100000000000000000000000000000000000000000000000000000000600052601260045260246000fd5b6000610c6e826109f8565b9150610c79836109f8565b925082610c8957610c88610c34565b5b828204905092915050565b600081519050610ca381610a02565b92915050565b600060208284031215610cbf57610cbe6109f3565b5b6000610ccd84828501610c94565b91505092915050565b7f546865206163636f756e7420646f6573206e6f74206861766520616e7920746f60008201527f6b656e7300000000000000000000000000000000000000000000000000000000602082015250565b6000610d32602483610bb7565b9150610d3d82610cd6565b604082019050919050565b60006020820190508181036000830152610d6181610d25565b9050919050565b6000606082019050610d7d60008301866109c9565b610d8a60208301856109c9565b610d976040830184610a81565b949350505050565b60008115159050919050565b610db481610d9f565b8114610dbf57600080fd5b50565b600081519050610dd181610dab565b92915050565b600060208284031215610ded57610dec6109f3565b5b6000610dfb84828501610dc2565b91505092915050565b6000610e0f826109f8565b9150610e1a836109f8565b925082821015610e2d57610e2c610ad8565b5b828203905092915050565b7f6e6f7420656e6f75676820746f6b656e732073656e7420666f7220616464696e60008201527f67206c6971756964697479000000000000000000000000000000000000000000602082015250565b6000610e94602b83610bb7565b9150610e9f82610e38565b604082019050919050565b60006020820190508181036000830152610ec381610e87565b9050919050565b600081905092915050565b50565b6000610ee5600083610eca565b9150610ef082610ed5565b600082019050919050565b6000610f0682610ed8565b9150819050919050565b7f4661696c656420746f2073656e64204574686572000000000000000000000000600082015250565b6000610f46601483610bb7565b9150610f5182610f10565b602082019050919050565b60006020820190508181036000830152610f7581610f39565b9050919050565b6000604082019050610f9160008301856109c9565b610f9e6020830184610a81565b939250505056fea2646970667358221220c7d98ec4164aa638198bd4aefe70aa80f3b164aef85f6fbc54d958c26f0f627664736f6c634300080b0033",
  "immutableReferences": {},
  "source": "// SPDX-License-Identifier: GPL-3.0\n\npragma solidity ^0.8.3;\n\nimport \"@openzeppelin/contracts/token/ERC20/IERC20.sol\";\ncontract Exchange {\n    address private tokenAddress;\n    \n    constructor (address _tokenAddress) {\n        require(_tokenAddress != address(0), \"address(0) cannot be used\");\n        tokenAddress = _tokenAddress;\n    }\n    \n    function getTotalSupplyOfToken() public view returns(uint) {\n        return IERC20(tokenAddress).totalSupply();\n    }\n\n    function getTokenAddress() public view returns(address) {\n        return tokenAddress;\n    }\n    \n    // //approveSpender //approve from outside (through ui)\n    \n    //addLiquidity\n    function addLiquidity(uint _tokenAmount) public payable {\n        //addLiquidity such that 1 ether equals 10000 tokens(in tests or UI)\n        require(IERC20(tokenAddress).balanceOf(msg.sender) > 0, \"The account does not have any tokens\");\n        if(getTokenReserve() == 0) {\n            IERC20(tokenAddress).transferFrom(msg.sender, address(this), _tokenAmount * 10**18);\n        } else {\n            uint ethReserveBefore = address(this).balance - msg.value;\n            uint tokenReserve = getTokenReserve();\n            uint tokenAmountToAdd = msg.value * tokenReserve / ethReserveBefore;\n            require(tokenAmountToAdd < _tokenAmount * 10 ** 18, \"not enough tokens sent for adding liquidity\");\n            IERC20(tokenAddress).transferFrom(msg.sender, address(this), tokenAmountToAdd);\n        }\n        \n    }\n    \n    //getTokenReserve\n    function getTokenReserve() public view returns(uint) {\n        return IERC20(tokenAddress).balanceOf(address(this));\n    }\n    \n    //getEtherReserve\n    function getEtherReserve() public view returns(uint) {\n        return address(this).balance;\n    }\n        \n    //getTokenAmount\n    function getTokenAmount(uint _inputEthAmount, uint EthReserve, uint tokenReserve) public pure returns(uint) {\n        uint numerator = _inputEthAmount * tokenReserve; //eth will be in wei(10**18)\n        uint denominator = EthReserve + _inputEthAmount;\n        require(denominator > 0, \"division by zero is not allowed\");\n        return numerator/denominator;\n    }\n    \n    //getEthAmount\n    function getEtherAmount(uint _inputTokenAmount, uint tokenReserve, uint EthReserve) public pure returns(uint) {\n        uint numerator = _inputTokenAmount * EthReserve;  //token will also be in wei(10**18)\n        uint denominator = tokenReserve + _inputTokenAmount;\n        require(denominator > 0, \"division by zero is not allowed\");\n        return numerator/denominator;\n    }\n\n    //swapEtherForToken\n    function changeEtherToToken() public payable {\n        uint tokenReserve = getTokenReserve();\n        uint amountOfTokens = getTokenAmount(msg.value, address(this).balance - msg.value, tokenReserve);\n        IERC20(tokenAddress).transfer(msg.sender, amountOfTokens);\n    }\n    \n    //swapTokenForEther\n    function changeTokenToEther(uint _inputTokenAmount) public {\n        uint tokenReserve = getTokenReserve();\n        uint amountOfEthers = getEtherAmount(_inputTokenAmount * 10**18, tokenReserve, address(this).balance);\n        \n        IERC20(tokenAddress).transferFrom(msg.sender, address(this), _inputTokenAmount * 10**18);\n        (bool sent, ) = payable(msg.sender).call{value: amountOfEthers}(\"\");\n        require(sent, \"Failed to send Ether\");\n    }\n    \n}",
  "sourcePath": "/Users/karthik/goms/tokenswap/TokenSwap/contracts/Exchange.sol",
  "compiler": {
    "name": "solc",
    "version": "0.8.11+commit.d7f03943.Emscripten.clang"
  },
  "schemaVersion": "3.4.4",
  "updatedAt": "2022-12-29T16:44:13.887Z",
  "networkType": "ethereum",
  "devdoc": {
    "kind": "dev",
    "methods": {},
    "version": 1
  },
  "userdoc": {
    "kind": "user",
    "methods": {},
    "version": 1
  }
}